:020000040800F2
:100000000000000041040008BDC70008CBC700087D
:10001000D1C70008D7C70008DDC7000800000000EE
:10002000000000000000000000000000E3C700081E
:10003000891E000800000000C51B0008951E00086E
:10004000951E0008951E0008951E0008951E0008C4
:10005000951E0008951E0008951E0008951E0008B4
:10006000951E0008951E0008951E0008951E0008A4
:10007000951E0008951E0008951E0008951E000894
:1004000010B5054C237833B9044B13B10448AFF34E
:1004100000800123237010BD300200200000000086
:100420000808010808B5034B1BB103490348AFF3A3
:10043000008008BD00000000340200200808010808
:1004400072B6DFF840D01048016841F470010160D5
:100450000E490F4A0F4B914204D053F8040B41F858
:10046000040BF8E74FF000000B490C4A914202D010
:1004700041F8040BFAE70CF06BF90DF0A1FB0CF05E
:100480004BF9FEE70000012088ED00E000000020AD
:1004900030020020006D0108300200204C280020AE
:1004A00010F8012B11F8013B012A28BF9A42F7D01E
:1004B000D01A7047034613F8012B002AFBD1181AF3
:1004C000013870470000000000000000000000003C
:1004D00001F0FF01102A2BDB10F0070F08D010F8F5
:1004E000013B013A8B422DD010F0070F42B3F6D1F9
:1004F000F0B441EA012141EA014122F007047FF012
:1005000000070023F0E80256083C85EA010586EA68
:10051000010685FA47F5A3FA87F586FA47F6A5FAA4
:1005200087F68EB9EED1F0BC01F0FF0102F00702B0
:1005300032B110F8013B013A83EA010313B1F8D15B
:100540000020704701387047002D06BF354603383C
:10055000073815F0010F07D1013015F4807F02BF75
:10056000013015F4C03F0130F0BC0138704700BFC6
:1005700081F0004102E000BF83F0004330B54FEA54
:1005800041044FEA430594EA050F08BF90EA020FC1
:100590001FBF54EA000C55EA020C7FEA645C7FEA54
:1005A000655C00F0E2804FEA5454D4EB5555B8BF77
:1005B0006D420CDD2C4480EA020281EA030382EAE8
:1005C000000083EA010180EA020281EA0303362D7A
:1005D00088BF30BD11F0004F4FEA01314FF4801C4D
:1005E0004CEA113102D0404261EB410113F0004F5F
:1005F0004FEA03334CEA133302D0524263EB430316
:1006000094EA050F00F0A780A4F10104D5F1200EB3
:100610000DDB02FA0EFC22FA05F2801841F100010E
:1006200003FA0EF2801843FA05F359410EE0A5F1E2
:1006300020050EF1200E012A03FA0EFC28BF4CF013
:10064000020C43FA05F3C01851EBE37101F00045C9
:1006500007D54FF0000EDCF1000C7EEB00006EEBD6
:100660000101B1F5801F1BD3B1F5001F0CD3490860
:100670005FEA30004FEA3C0C04F101044FEA4452B7
:1006800012F5800F80F09A80BCF1004F08BF5FEA3E
:10069000500C50F1000041EB045141EA050130BD1E
:1006A0005FEA4C0C404141EB0101013C28BFB1F530
:1006B000801FE9D291F0000F04BF01460020B1FA7B
:1006C00081F308BF2033A3F10B03B3F120020CDA4E
:1006D0000C3208DD02F1140CC2F10C0201FA0CF02C
:1006E00021FA02F10CE002F11402D8BFC2F1200C91
:1006F00001FA02F120FA0CFCDCBF41EA0C01904047
:10070000E41AA2BF01EB0451294330BD6FEA04048F
:100710001F3C1CDA0C340EDC04F11404C4F120027A
:1007200020FA04F001FA02F340EA030021FA04F38C
:1007300045EA030130BDC4F10C04C4F1200220FAE3
:1007400002F001FA04F340EA0300294630BD21FA21
:1007500004F0294630BD94F0000F83F4801306BFE7
:1007600081F480110134013D4EE77FEA645C18BFDB
:100770007FEA655C29D094EA050F08BF90EA020F72
:1007800005D054EA000C04BF1946104630BD91EA6A
:10079000030F1EBF0021002030BD5FEA545C05D16D
:1007A0004000494128BF41F0004130BD14F58004AC
:1007B0003CBF01F5801130BD01F0004545F0FE4120
:1007C00041F470014FF0000030BD7FEA645C1ABF55
:1007D000194610467FEA655C1CBF0B46024650EA8C
:1007E000013406BF52EA033591EA030F41F40021B8
:1007F00030BD00BF90F0000F04BF0021704730B53E
:100800004FF4806404F132044FF000054FF0000112
:1008100050E700BF90F0000F04BF0021704730B5D3
:100820004FF4806404F1320410F0004548BF4042A8
:100830004FF000013EE700BF42004FEAE2014FEAFD
:1008400031014FEA02701FBF12F07F4393F07F4FD8
:1008500081F06051704732F07F4208BF704793F0DB
:100860007F4F04BF41F40021704730B54FF46074EE
:1008700001F0004521F000411CE700BF50EA0102F1
:1008800008BF704730B54FF000050AE050EA01029A
:1008900008BF704730B511F0004502D5404261EB0A
:1008A00041014FF4806404F132045FEA915C3FF44B
:1008B000D8AE4FF003025FEADC0C18BF03325FEAE8
:1008C000DC0C18BF033202EBDC02C2F1200300FA99
:1008D00003FC20FA02F001FA03FE40EA0E0021FABE
:1008E00002F11444BDE600BF70B54FF0FF0C4CF4AC
:1008F000E06C1CEA11541DBF1CEA135594EA0C0F5E
:1009000095EA0C0F00F0DEF82C4481EA030621EA98
:100910004C5123EA4C5350EA013518BF52EA0335D3
:1009200041F4801143F4801338D0A0FB02CE4FF085
:100930000005E1FB02E506F00042E0FB03E54FF0B5
:100940000006E1FB03569CF0000F18BF4EF0010EAD
:10095000A4F1FF04B6F5007F64F5407404D25FEAA9
:100960004E0E6D4146EB060642EAC62141EA55515C
:100970004FEAC52040EA5E504FEACE2EB4F1FD0C9E
:1009800088BFBCF5E06F1ED8BEF1004F08BF5FEA1C
:10099000500E50F1000041EB045170BD06F00046CE
:1009A00046EA010140EA020081EA0301B4EB5C047B
:1009B000C2BFD4EB0C0541EA045170BD41F4801173
:1009C0004FF0000E013C00F3AB8014F1360FDEBF98
:1009D000002001F0004170BDC4F10004203C35DA74
:1009E0000C341BDC04F11404C4F1200500FA05F3F7
:1009F00020FA04F001FA05F240EA020001F0004298
:100A000021F0004110EBD37021FA04F642EB06010D
:100A10005EEA430E08BF20EAD37070BDC4F10C0437
:100A2000C4F1200500FA04F320FA05F001FA04F2FB
:100A300040EA020001F0004110EBD37041F10001E7
:100A40005EEA430E08BF20EAD37070BDC4F12005F2
:100A500000FA05F24EEA020E20FA04F301FA05F25A
:100A600043EA020321FA04F001F0004121FA04F202
:100A700020EA020000EBD3705EEA430E08BF20EAD2
:100A8000D37070BD94F0000F0FD101F0004640000C
:100A900041EB010111F4801F08BF013CF7D041EA8E
:100AA000060195F0000F18BF704703F00046520092
:100AB00043EB030313F4801F08BF013DF7D043EA63
:100AC0000603704794EA0C0F0CEA135518BF95EA19
:100AD0000C0F0CD050EA410618BF52EA4306D1D1A0
:100AE00081EA030101F000414FF0000070BD50EABF
:100AF000410606BF1046194652EA430619D094EA49
:100B00000C0F02D150EA013613D195EA0C0F05D132
:100B100052EA03361CBF104619460AD181EA030186
:100B200001F0004141F0FE4141F470014FF000003E
:100B300070BD41F0FE4141F4780170BD70B54FF0D9
:100B4000FF0C4CF4E06C1CEA11541DBF1CEA135559
:100B500094EA0C0F95EA0C0F00F0A7F8A4EB05043B
:100B600081EA030E52EA03354FEA013100F0888032
:100B70004FEA03334FF0805545EA131343EA1263FB
:100B80004FEA022245EA111545EA10654FEA0026B0
:100B90000EF000419D4208BF964244F1FD0404F569
:100BA000407402D25B084FEA3202B61A65EB0305C5
:100BB0005B084FEA32024FF480104FF4002CB6EB82
:100BC000020E75EB030E22BFB61A754640EA0C0002
:100BD0005B084FEA3202B6EB020E75EB030E22BF42
:100BE000B61A754640EA5C005B084FEA3202B6EB83
:100BF000020E75EB030E22BFB61A754640EA9C0042
:100C00005B084FEA3202B6EB020E75EB030E22BF11
:100C1000B61A754640EADC0055EA060E18D04FEACF
:100C2000051545EA16754FEA06164FEAC30343EA6F
:100C300052734FEAC2025FEA1C1CC0D111F4801F3C
:100C40000BD141EA00014FF000004FF0004CB6E735
:100C500011F4801F04BF01430020B4F1FD0C88BFD4
:100C6000BCF5E06F3FF6AFAEB5EB030C04BFB6EBDF
:100C7000020C5FEA500C50F1000041EB045170BDD2
:100C80000EF0004E4EEA113114EB5C04C2BFD4EBFF
:100C90000C0541EA045170BD41F480114FF0000E83
:100CA000013C90E645EA060E8DE60CEA135594EAFF
:100CB0000C0F08BF95EA0C0F3FF43BAF94EA0C0F02
:100CC0000AD150EA01347FF434AF95EA0C0F7FF477
:100CD00025AF104619462CE795EA0C0F06D152EACB
:100CE00003353FF4FDAE1046194622E750EA4106AF
:100CF00018BF52EA43067FF4C5AE50EA41047FF4C0
:100D00000DAF52EA43057FF4EBAE12E74FF0FF3C24
:100D100006E000BF4FF0010C02E000BF4FF0010CF5
:100D20004DF804CD4FEA410C7FEA6C5C4FEA430C6E
:100D300018BF7FEA6C5C1BD001B050EA410C0CBFBD
:100D400052EA430C91EA030F02BF90EA020F00201F
:100D5000704710F1000F91EA030F58BF994208BF86
:100D600090422CBFD8176FEAE37040F00100704743
:100D70004FEA410C7FEA6C5C02D150EA013C07D19A
:100D80004FEA430C7FEA6C5CD6D152EA033CD3D0E5
:100D90005DF8040B704700BF8446104662468C46DF
:100DA0001946634600E000BF01B5FFF7B7FF002812
:100DB00048BF10F1000F01BD4DF808EDFFF7F4FF3B
:100DC0000CBF012000205DF808FB00BF4DF808EDC6
:100DD000FFF7EAFF34BF012000205DF808FB00BFE9
:100DE0004DF808EDFFF7E0FF94BF012000205DF80B
:100DF00008FB00BF4DF808EDFFF7CEFF94BF0120C0
:100E000000205DF808FB00BF4DF808EDFFF7C4FFB8
:100E100034BF012000205DF808FB00BF4FEA410C01
:100E20007FEA6C5C02D150EA013C0AD14FEA430CE4
:100E30007FEA6C5C02D152EA033C02D14FF0000021
:100E400070474FF0010070474FEA410212F500125F
:100E500015D211D56FF47873B3EB625212D94FEA01
:100E6000C12343F0004343EA505311F0004F23FAEB
:100E700002F018BF404270474FF00000704750EA40
:100E8000013005D111F0004008BF6FF000407047FD
:100E90004FF00000704700BF4FEA4102B2F1E0435B
:100EA00024BFB3F5001CDCF1FE5C0DD901F0004C51
:100EB0004FEAC0024CEA5070B2F1004F40EB8300A1
:100EC00008BF20F00100704711F0804F21D113F1CD
:100ED0003872BCBF01F00040704741F480114FEA06
:100EE0005252C2F11802C2F1200C10FA0CF320FA8F
:100EF00002F018BF40F001004FEAC1234FEAD323AC
:100F000003FA0CFC40EA0C0023FA02F34FEA430315
:100F1000CCE77FEA625307D150EA01331EBF4FF09E
:100F2000FE4040F44000704701F0004040F0FE40B9
:100F300040F40000704700BF53B94AB9002908BF08
:100F400000281CBF4FF0FF314FF0FF3000F06EB9AA
:100F5000ADF1080C6DE904CE00F006F8DDF804E010
:100F6000DDE9022304B070472DE9F047089D0446EF
:100F70008C46002B40F083808A42174647D9B2FA4C
:100F800082F242B1C2F1200024FA00F09140974071
:100F900040EA010C94404FEA1748230CBCFBF8F6DA
:100FA0001FFA87FE08FB16C143EA014306FB0EF158
:100FB000994209D9FB1806F1FF3080F01981994256
:100FC00040F21681023E3B445B1AA4B2B3FBF8F038
:100FD00008FB103344EA034400FB0EFEA64509D982
:100FE0003C1900F1FF3380F00581A64540F20281F3
:100FF00002383C4440EA0640A4EB0E0400261DB132
:10100000D4400023C5E900433146BDE8F08702B96A
:10101000FFDEB2FA82F2002A50D1CB1B4FEA174E04
:101020001FFA87F80126B3FBFEFC210C0EFB1C33D4
:1010300041EA034108FB0CF38B4207D979180CF104
:10104000FF3002D28B4200F2E9808446C91AA3B273
:10105000B1FBFEF00EFB101143EA014408FB00F85F
:10106000A04507D93C1900F1FF3302D2A04500F298
:10107000D9801846A4EB080440EA0C40BFE78B4235
:1010800009D9002D00F0B1800026C5E900013046E5
:101090003146BDE8F087B3FA83F6002E4AD18B4281
:1010A00002D3824200F2B880841A61EB030101206E
:1010B0008C46002DA8D0C5E9004CA5E7C2F120035D
:1010C00020FA03F6974001FA02F04FEA174ED94092
:1010D0003043030CB1FBFEF61FFA87F80EFB161126
:1010E00043EA014306FB08F1994204FA02F409D9E4
:1010F000FB1806F1FF3C80F08D80994240F28A8017
:10110000023E3B445B1A81B2B3FBFEF00EFB103390
:1011100041EA034100FB08F38B4207D9791800F13B
:10112000FF3C73D28B4271D902383944CB1A40EA62
:10113000064678E7C6F1200C03FA06F422FA0CF30F
:101140001C4320FA0CF701FA06F34FEA144E21FA79
:101150000CF11F433B0CB1FBFEF91FFA84F80EFBA8
:10116000191143EA014109FB08FA8A4502FA06F21D
:1011700000FA06F308D9611809F1FF3048D28A4510
:1011800046D9A9F102092144A1EB0A01BFB2B1FB82
:10119000FEF00EFB101147EA014700FB08F8B845C6
:1011A00007D9E71900F1FF312ED2B8452CD9023802
:1011B000274440EA0940A7EB0807A0FB02894F45F6
:1011C000C64649461AD317D05DB1B3EB0E0267EBA2
:1011D000010707FA0CFCF2404CEA0202F740C5E9AD
:1011E000002700263146BDE8F0872E4628460BE74B
:1011F0000646E9E61846FDE64345E5D2B8EB020EA1
:1012000069EB04010138DFE70846D2E760468DE765
:101210008146B9E7664675E730464AE7ACF1020C0D
:10122000394413E702383C4424E700BF704700BF4D
:1012300080B58AB000AFF860B9607A600023BB6106
:1012400000237B6200233B62FB681B68BB61FB6879
:101250007A6A1A607B68002B01D17B6A40E078686B
:10126000FFF728F903467B617B683B6209E03B6A34
:101270001B78202B02D13B6A00221A703B6A013393
:101280003B627B697A6813443A6A9A42EFD300233F
:10129000FB777B683B6219E03B6A1B78002B0FD021
:1012A000FB7F002B0CD17A6ABB699A4208DA7B6A11
:1012B0009B00BA6813443A6A1A607B6A01337B6206
:1012C0003B6A1B78FB773B6A01333B627B697A6838
:1012D00013443A6A9A42DFD3FB687A6A1A607B6ADF
:1012E00018462837BD4680BD80B487B000AFF8608F
:1012F000B9607A603B604FF0FF337B61FB68002B85
:1013000001D17B690EE0FB68BA681A60FB687A68F5
:101310005A60FB683A6A9A60FB683A68DA600023B0
:101320007B617B6918461C37BD465DF8047B7047BE
:1013300080B58AB000AFF860B9607A604FF0FF33D3
:10134000FB61FB68002B05D0BB68002B02D07B68DB
:10135000002B01D1FB699FE0FB689A68FB685B6822
:101360009A4203D0FB685B68002B03DC0023FB611F
:10137000FB6991E0FB685A68FB689B68D31A7A683E
:101380009342A8BF1346FB61FB697B62BB683B626B
:10139000FB68DA68FB689B681A44FB685B689A42E2
:1013A00027DDFB68DA68FB689B681344FA685268BB
:1013B00093FBF2F102FB01F29B1ABB617B6A7B613A
:1013C000FB681A68BB6913443B617B69002B3FDDF6
:1013D0007B691A46396A38690CF027FCFB689A6801
:1013E0007B691A44FB689A607A6A7B69D31A7B62CC
:1013F0002EE0FB68DA68FB689B681A447B6A1A4433
:10140000FB685B689A4223DDFB68DA68FB689B68CF
:101410001344BB61FB685A68BB69D31A7B61FB68E4
:101420001A68BB6913443B617B691A46396A38699B
:101430000CF0FBFB7B693A6A13443B62FB689A68D9
:101440007B691A44FB689A607A6A7B69D31A7B626B
:101450007B6A002B1FDDFB68DA68FB689B6813441E
:10146000FA68526893FBF2F102FB01F29B1ABB612E
:101470007B6A7B61FB681A68BB6913443B617B69CB
:101480001A46396A38690CF0D0FBFB689A687B69A8
:101490001A44FB689A60FB6918462837BD4680BD30
:1014A00080B58AB000AFF860B9607A604FF0FF3362
:1014B000FB61FB68002B05D0BB68002B02D07B686A
:1014C000002B01D1FB6970E0FB689B68002B03D007
:1014D000FB685B68002B03DC0023FB61FB6964E0B5
:1014E000FB689B687A689342A8BF1346FB61FB695F
:1014F0007B62BB683B62FB68DA68FB6859687B6AA1
:10150000CB1A9A4231DBFB68DB68BB61FB685A6827
:10151000FB68DB68D31A7B61FB681A68BB691344FC
:101520003B617B69002B20DD7B691A463969386A8B
:101530000CF07BFBFB68DA687B691344FA6852683D
:1015400093FBF2F102FB01F29A1AFB68DA60FB6886
:101550009A687B69D21AFB689A607A6A7B69D31AA7
:101560007B627B693A6A13443B627B6A002B1BDD1A
:10157000FB68DB68BB617B6A7B61FB681A68BB69DF
:1015800013443B617B691A463969386A0CF04DFB9C
:10159000FB68DA687B691A44FB68DA60FB689A6862
:1015A0007B69D21AFB689A60FB6918462837BD46EA
:1015B00080BD80B485B000AF78604FF0FF33FB6032
:1015C0007B68002B02D07B689B68FB60FB68184639
:1015D0001437BD465DF8047B704780B485B000AF1A
:1015E00078604FF0FF33FB607B68002B07D07B688F
:1015F00000229A607B680022DA600023FB60FB68AF
:1016000018461437BD465DF8047B704780B400AFC0
:10161000034B1B781846BD465DF8047B704700BF3E
:101620004C02002080B483B000AF0346FB71FB790D
:10163000052B01D9054B03E0FB79054A52F823300D
:1016400018460C37BD465DF8047B7047F00801086A
:101650000000002080B485B000AF78604FF0FF3309
:10166000FB60084B1B68002B04D1064A7B681360A3
:101670000023FB60FB6818461437BD465DF8047B09
:10168000704700BF5002002090B589B002AFF860EB
:10169000B9607A603B6000237B61114B1B68002BB3
:1016A00018D00F4B1B685B68002B13D00C4B1B68CA
:1016B0005B681B68002B0DD0094B1B685B681C68BE
:1016C000FB6A0193BB6A00933B687A68B968F86863
:1016D000A04778617B6918461C37BD4690BD00BFA6
:1016E0005002002080B582B000AF78600C4B1B68C0
:1016F000002B11D00A4B1B685B68002B0CD0084BE9
:101700001B685B68DB68002B06D0054B1B685B68B9
:10171000DB687868984700BF00BF0837BD4680BDCA
:101720005002002080B584B000AF78600023FB60D9
:101730000D4B1B68002B11D00B4B1B685B68002BFB
:101740000CD0094B1B685B681B69002B06D0064B4D
:101750001B685B681B6978689847F860FB681846E7
:101760001037BD4680BD00BF5002002080B584B058
:1017700000AF78600023FB600D4B1B68002B11D07D
:101780000B4B1B685B68002B0CD0094B1B685B681C
:101790005B69002B06D0064B1B685B685B69786849
:1017A0009847F860FB6818461037BD4680BD00BFFB
:1017B0005002002080B584B000AF78600023FB6049
:1017C0000D4B1B68002B11D00B4B1B685B68002B6B
:1017D0000CD0094B1B685B689B69002B06D0064B3D
:1017E0001B685B689B6978689847F860FB681846D7
:1017F0001037BD4680BD00BF5002002080B584B0C8
:1018000000AF78600023FB600D4B1B68002B11D0EC
:101810000B4B1B685B68002B0CD0094B1B685B688B
:10182000DB69002B06D0064B1B685B68DB697868B8
:101830009847F860FB6818461037BD4680BD00BF6A
:101840005002002080B586B000AFF860B9607A60C1
:1018500000237B610E4B1B68002B13D00C4B1B68C5
:101860005B68002B0ED00A4B1B685B681B6A002B61
:1018700008D0074B1B685B681B6A7A68B968F86810
:10188000984778617B6918461837BD4680BD00BF10
:101890005002002080B584B000AF7860396000232A
:1018A000FB600E4B1B68002B12D00C4B1B685B6857
:1018B000002B0DD0094B1B685B685B6A002B07D0BF
:1018C000064B1B685B685B6A396878689847F86004
:1018D000FB6818461037BD4680BD00BF500200208F
:1018E00080B584B000AF78600023FB600D4B1B68AF
:1018F000002B11D00B4B1B685B68002B0CD0094BE5
:101900001B685B689B6A002B06D0064B1B685B68F4
:101910009B6A78689847F860FB6818461037BD46A0
:1019200080BD00BF5002002080B584B000AF786059
:101930000023FB600D4B1B68002B11D00B4B1B6869
:101940005B68002B0CD0094B1B685B68DB6A002BC3
:1019500006D0064B1B685B68DB6A78689847F860BE
:10196000FB6818461037BD4680BD00BF50020020FE
:1019700080B584B000AF78600023FB600D4B1B681E
:10198000002B12D00B4B1B685B68002B0DD0094B52
:101990001B685B681B6C002B07D0064B1B685B68E1
:1019A0001B6C7A6810469847F860FB681846103739
:1019B000BD4680BD5002002080B582B000AF786087
:1019C0007B68002B15D00D4B1B68002B11D00B4BE7
:1019D0001B685B68002B0CD0084B1B685B685B6C5A
:1019E000002B06D0054B1B685B685B6C78689847DA
:1019F00000BF00BF0837BD4680BD00BF50020020B9
:101A000080B584B000AF786039600023FB600E4B76
:101A10001B68002B13D00C4B1B685B68002B0ED08F
:101A2000094B1B685B689B6C002B08D0064B1B683E
:101A30005B689B6C3A68114678689847F860FB6869
:101A400018461037BD4680BD5002002080B584B0D6
:101A500000AF786039600023FB607B683A6802FB66
:101A600003F3BB60B86800F03EFD0346FB60FB6813
:101A7000002B04D0BA680021F8680CF0E4F8FB6889
:101A800018461037BD4680BD80B582B000AF4FF01C
:101A900000024FF00003C7E900230E4B1B68002B28
:101AA00011D00C4B1B685B68002B0CD0094B1B68DA
:101AB0005B68DB6C002B06D0064B1B685B68DB6C3D
:101AC0009847C7E90001D7E90023104619460837AF
:101AD000BD4680BD5002002080B582B000AF4FF0FF
:101AE000FF337B600C4B1B68002B10D00A4B1B682C
:101AF0005B68002B0BD0084B1B685B681B6D002BD1
:101B000005D0054B1B685B681B6D984778607B6848
:101B100018460837BD4680BD5002002080B582B00F
:101B200000AF4FF0FF337B6000F0C0FC78607B6853
:101B300018460837BD4680BD72B61548154902687B
:101B400041EA0201016014484FF0010101601348AD
:101B50004168016001688A884FF0100342EA03027D
:101B60008A80D1F800C04FF002030CF1240C0CF174
:101B7000040CDCF80000DCF814E0DCF818200CF1B0
:101B8000200C8CF3098862B683F31488104700BFD9
:101B900020ED00E00000FFFF6C2400206424002002
:101BA000EFF3108072B6704700BF184680F31088BC
:101BB000704700BF02484FF080510160704700BF7E
:101BC00004ED00E0EFF3108C72B6194A126822B1EE
:101BD0002DE900509047BDE80050EFF309801EF05A
:101BE000100F01D120ED108B40F804ED20E9F01F1B
:101BF000104D4FF010082E683060B78827EA0807AC
:101C0000B78068682860878847EA08078780016886
:101C1000B1E8F01F51F804EB1EF0100F01D1B1EC48
:101C2000108B81F309888CF31088704700BF000087
:101C30005C0200206424002080B483B000AF03461F
:101C40003960FB7197F90730002B0ADB3B68DAB289
:101C50000C4997F907301201D2B20B4483F80023E4
:101C60000AE03B68DAB20849FB7903F00F03043B52
:101C70001201D2B20B441A7600BF0C37BD465DF894
:101C8000047B704700E100E000ED00E080B582B029
:101C900000AF78607B68013BB3F1807F01D3012303
:101CA0000FE00A4A7B68013B53600F214FF0FF3081
:101CB000FFF7C2FF054B00229A60044B07221A600F
:101CC000002318460837BD4680BD00BF10E000E085
:101CD00080B584B002AF1D4B1B68002B04D01B4B9A
:101CE0001B68B3F57A7F01D2194B2AE000230093D9
:101CF000184B002207214FF0FF3000F00FF9134B73
:101D00001B68154AA2FB03239B09144A136014495C
:101D10004FF000024FF00003C1E900230B4B1B689A
:101D20000D4AA2FB03239B091846FFF7AFFF78601B
:101D30007B68012B01D10B4B03E00B4B01221A6096
:101D4000002318460837BD4680BD00BF480000206C
:101D50000004000241260008D34D62102824002010
:101D600020240020020400025802002080B485B024
:101D700000AF78607B6803F00703FB600C4BDB6807
:101D8000BB60BA684FF6FF031340BB60FB681A02E2
:101D9000BB68134343F0BF6343F40033BB60044AA2
:101DA000BB68D36000BF1437BD465DF8047B704745
:101DB00000ED00E080B483B000AF0346FB7197F9FB
:101DC0000730002B0BDBFB7903F01F02074997F963
:101DD00007305B09012000FA02F241F8232000BF1E
:101DE0000C37BD465DF8047B704700BF00E100E0A2
:101DF00080B483B000AF03463960FB7197F90730B8
:101E0000002B0ADB3B68DAB20C4997F90730120164
:101E1000D2B20B4483F800230AE03B68DAB20849E7
:101E2000FB7903F00F03043B1201D2B20B441A7684
:101E300000BF0C37BD465DF8047B704700E100E051
:101E400000ED00E080B483B000AFEFF305837B606A
:101E50007B6818460C37BD465DF8047B7047000070
:101E600080B500AF05480CF061FBFFF7EBFF0346C0
:101E70001A46034903480CF059FBFEE7F80801082D
:101E8000481B01080009010880B500AFFFF7E8FF13
:101E900000BF80BD80B582B000AFFFF781FE7860E3
:101EA000154B1B680133144A13607868FFF77EFEF8
:101EB000FFF7C8FF38603B680F3B3B600F4A3B6849
:101EC00052F82330002B05D00C4A3B6852F82330DF
:101ED000984701E0FFF7C4FFFFF762FE7860064B0A
:101EE0001B68013B044A13607868FFF75FFE00BF80
:101EF0000837BD4680BD00BF540200205820002096
:101F000080B500AF034B044A9A600720FFF72EFF0D
:101F100000BF80BD00ED00E00000000880B586B085
:101F200000AFF8607B600B467B8113463B817B688A
:101F3000002B01D1164B26E0FB68EF2B05D9FB687F
:101F4000B3F1FF3F01D0134B1DE07B89072B01D973
:101F5000114B18E0FFF724FE7861FB6801330F494D
:101F60007A6841F82320FB685BB21846FFF722FF2E
:101F7000FB685BB27A8911461846FFF739FF78692A
:101F8000FFF714FE002318461837BD4680BD00BF7A
:101F90000109000200090002050900025820002082
:101FA00080B500AFFFF706FE00BF80BD80B582B0F0
:101FB00000AFFFF7F5FD786001F0D2FC0346283B47
:101FC0000B4A53600A4B1A68094B5B689A4209D066
:101FD000084B1B88002B05D17868FFF7E7FDFFF75A
:101FE000E9FD02E07868FFF7E1FD0837BD4680BDF6
:101FF000642400206024002080B400AF72B600BFCB
:10200000FEE7000080B586B000AF786039607B687D
:10201000DB687B617B689B687A6913443B617B6802
:102020009B681A464FF0CA3178690BF00CFE7B6949
:102030004FF0CC321A603B69483B3B613B69FB6027
:10204000FB684FF004321A60FB684FF005325A60AB
:10205000FB684FF006329A60FB684FF00732DA6097
:10206000FB684FF008321A61FB684FF009325A6181
:10207000FB684FF010329A61FB684FF01132DA6161
:10208000FB6800221A62FB686FF002025A627B68EA
:102090001A69FB689A62FB684FF00132DA62FB68EA
:1020A0004FF002321A63FB684FF003325A63FB6849
:1020B0004FF012329A63084AFB68DA63074AFB68FA
:1020C0001A64FB684FF080725A647B683A691A6040
:1020D00000BF1837BD4680BDF91F00085930000801
:1020E00080B584B000AF78600823FB6008214820E9
:1020F00003F033FC02467B68DB681A447B68DA60D5
:102100007B68DB68BB60064B1B68FA68B9681846D9
:1021100002F0FCFA034618461037BD4680BD00BFEA
:102120001C24002080B584B000AFFFF78BFE03466F
:10213000002B06D04FF000024FF00003C7E9022346
:102140000AE0FFF72DFD7860074BD3E90023C7E9CC
:1021500002237868FFF72AFDD7E9022310461946C3
:102160001037BD4680BD00BF2024002080B582B05E
:1021700000AF78603960386800F0B5F9034618465A
:102180000837BD4680BD80B584B000AFF860B96047
:102190007A607B681946B86800F04CF90346184627
:1021A0001037BD4680BD80B584B000AFF860B9601F
:1021B0007A607968B86800F0A2F9034618461037CB
:1021C000BD4680BD80B582B000AF786039603868A8
:1021D00000F07EF900BF0837BD4680BD80B582B0F3
:1021E00000AF78607B68184601F0B6F900BF083789
:1021F000BD4680BD80B58EB000AFF860B9607A6032
:102200003B6000237B6300233B6307F11403182228
:10221000002118460BF017FD7B68FB617B6C9BB2BD
:102220003B83FB687B62BB687B613B683B6207F179
:10223000140207F12C031146184601F017F8386311
:102240003B6B002B01D07B6B02E0FB6A7B637B6BFB
:1022500018463837BD4680BD80B584B000AF786081
:102260004FF0FF33FB607B68002B09D07B68BB60BD
:10227000B86801F071F80346002B01D10023FB6020
:10228000FB6818461037BD4680BD80B582B000AFF0
:1022900000F01EFE7860786801F05EF800BF083735
:1022A000BD4680BD80B582B000AF7860786801F02F
:1022B00035FF0346002B01D1012300E0002318461F
:1022C0000837BD4680BD80B582B000AF78607B68BE
:1022D0004FF0FF31184601F0DDFF0346002B01D11E
:1022E000012300E0002318460837BD4680BD80B5B5
:1022F00082B000AF78607B68184602F0A1F8034610
:10230000002B01D1012300E0002318460837BD4609
:1023100080BD80B582B000AF78607B68184601F060
:1023200059FF0346002B01D1012300E0002318468A
:102330000837BD4680BD80B584B000AFF860B96095
:102340007A607B689BB2BA6891B2FA68184601F06D
:102350006FFC0346002B01D1012300E00023184647
:102360001037BD4680BD80B582B000AF786039605F
:102370003B68B3F1FF3F02D14FF0FF333B607B6816
:102380003968184601F018FD0346002B01D10123DE
:1023900000E0002318460837BD4680BD80B582B0F6
:1023A00000AF78607B68184601F0B4FD0346002B4F
:1023B00001D1012300E0002318460837BD4680BD47
:1023C00080B582B000AF78607B68184601F092FC5F
:1023D0000346002B01D1012300E0002318460837F3
:1023E000BD4680BD80B584B000AF78600023FB603F
:1023F0007B68002B07DD064B1B687A681146184680
:1024000002F061F9F860FB6818461037BD4680BDE0
:102410001C24002080B582B000AF7860044B1B689C
:102420007968184602F092F900BF0837BD4680BDB2
:102430001C24002080B582B000AF78603960064B64
:102440001B683A687968184602F070F90346184626
:102450000837BD4680BD00BF1C24002080B500AFFA
:10246000FFF760FE02460B461046194680BD80B459
:1024700000AF00231846BD465DF8047B704780B569
:1024800086B002AFF860B9607A603B60F868BB68FC
:1024900099B27B689AB2BB6900933B68FFF73EFD37
:1024A000034618461037BD4680BD000080B582B097
:1024B00000AF4FF0FF337B600448FFF7CBF8786044
:1024C0007B6818460837BD4680BD00BFB41B0108B5
:1024D00080B582B000AF78607868FFF76DFA00BF12
:1024E0000837BD4680BD80B582B000AF786078689F
:1024F000FFF73EFA034618460837BD4680BD80B553
:1025000082B000AF7860396039687868FFF79EFA6A
:10251000034618460837BD4680BD80B582B000AF7F
:102520007860396039687868FFF76AFA03461846B8
:102530000837BD4680BD000080B400AF034B1022B9
:102540001A6000BFBD465DF8047B70475C24002024
:1025500080B582B000AFFFF7BBFB78607B68002BD3
:1025600007D007480BF0E2FF06480CF07BF87B68C9
:1025700002E0FFF7E1FA7B6818460837BD4680BDE8
:10258000180901082009010880B582B000AFFFF7E3
:10259000D3FF02F01BF878607B68002B08D024483A
:1025A0000BF0C4FF796823480BF0C0FF7B683AE06A
:1025B000FFF7A6FC00F0CCFB78607B68002B07D00F
:1025C0001B480BF0B3FF1C480CF04CF87B682AE06A
:1025D00000F026FD01F0EEFA78607B68002B01D058
:1025E0007B6820E001F062FD78607B68002B01D001
:1025F0007B6818E001F034FA78607B68002B07D024
:102600000B480BF093FF0D480CF02CF87B680AE0A8
:1026100000F046F800F034FC78607B68002B01D0B5
:102620007B6800E0002318460837BD4680BD00BF28
:102630001809010834090108500901086409010852
:10264000B0B500AF0D4B1B68002B09D10C4BD3E983
:102650000023541C43F10005094BC3E900450CE07D
:10266000074BD3E90023501C43F10001044BC3E99D
:10267000000100F025F800F0A5F9B0BD58020020D7
:102680002024002080B400AF044BD3E9002310467F
:102690001946BD465DF8047B704700BF202400202A
:1026A00080B400AF054B00221A60044B0A22DA8086
:1026B00000BFBD465DF8047B704700BF3824002092
:1026C00080B500AF124B1A68124B1B689A420FD0AC
:1026D000104B1B680E4A13600F4BD3E9002392B2D4
:1026E0000B4BDB8813449BB2013B9AB2084B9A8098
:1026F000074B9988084BD3E9002393B2994204D140
:10270000034B00221A6000F0EBFF00BF80BD00BF4A
:1027100038240020642400202024002080B483B0CA
:1027200000AF78607B687A685A607B687A681A6064
:1027300000BF0C37BD465DF8047B704780B483B0A2
:1027400000AF786039607B685A683B685A603B68C4
:102750007A681A607B685B683A681A607B683A68D6
:102760005A6000BF0C37BD465DF8047B704780B5EA
:1027700082B000AF786039607B681B6839681846A2
:10278000FFF7DCFF00BF0837BD4680BD80B483B0D3
:1027900000AF78607B685B687A6812681A607B6853
:1027A0001B687A6852685A607B6800225A607B68AE
:1027B00000221A6000BF0C37BD465DF8047B7047ED
:1027C00080B483B000AF78607B685B687A689A42B7
:1027D0000CBF01230023DBB218460C37BD465DF861
:1027E000047B704780B400AFFEE780B582B000AFD5
:1027F00078600B467B807B689B8803F00403002B8A
:102800001FD07B682833184601F080F87B689B88CE
:1028100023F004039AB27B689A807B687A88DA8016
:102820007B689B8843F004039AB27B689A807B683C
:1028300003F128027B68DB881946104601F03CF85A
:1028400002E07B687A88DA8000BF0837BD4680BD29
:1028500080B586B000AF786039603B6803F01F0335
:10286000FB603B685B093B61FB68002B02D13B6965
:10287000013B3B617B689B6B03F078423B691A43E9
:102880007B689A63354B9B881A46FB681344FB6050
:10289000FB6803F01F03FB607B689B6B23F07842AF
:1028A000FB68DB061A437B689A632C4B1A68FB684B
:1028B000DB001344BB60BB685B68BA689A4206D110
:1028C0007B6830331946B868FFF751FF41E0BB68B9
:1028D0005B68303B7B617B699B6B23F078427B6854
:1028E0009B6B23F078439A4210D87B689B6B03F074
:1028F00078427B689B6B23F078417B699B6B23F06C
:102900007843CB1A1A437B689A6310E07B699B6B10
:1029100003F078427B699B6B23F078417B689B6B6B
:1029200023F07843CB1A1A437B699A6308E07B69EA
:102930005B6B303B7B617B693033BA689A42CAD1AA
:102940007B6903F130027B68303319461046FFF78C
:102950000EFF00BF1837BD4680BD00BF50240020C9
:1029600080B586B000AF78607B689B6BDB0E7B61C7
:10297000134B1A687B69DB0013443B617B685B6B1C
:102980003A699A4213D07B685B6B303BFB60FB6813
:102990009B6B03F07842FB689B6B23F078417B686C
:1029A0009B6B23F078430B441A43FB689A637B6864
:1029B00030331846FFF7EAFE00BF1837BD4680BD2A
:1029C0005024002080B584B000AF0023BB604F4B83
:1029D0009B8801335A4203F01F0302F01F0258BFC5
:1029E00053429AB2494B9A80484B1A68474B9B888E
:1029F000DB0013447B607B685B687A689A4200F076
:102A000081807B685B68303BFB6070E0FB689B8883
:102A10007B80FB689B6B23F07843002B05D0FB6821
:102A20009B6B5A1EFB689A6366E0FB68303318465E
:102A3000FFF7ACFE7B8803F008039BB2002B12D09B
:102A4000FB689B8823F008039AB2FB689A80FB68B6
:102A500028331846FFF79AFEFB6800229A61FB684C
:102A60000022DA6127E07B8803F480639BB2002BAD
:102A700007D0FB689B8823F480639AB2FB689A8036
:102A800019E07B8803F400539BB2002B0CD0FB6849
:102A900028331846FFF77AFEFB689B8823F400531F
:102AA0009AB2FB689A8006E0FB689B8823F02003BB
:102AB0009AB2FB689A807B8803F002039BB2002BDA
:102AC00011D1FB689B8843F004039AB2FB689A809B
:102AD000FB6803F12802FB68DB881946104600F00A
:102AE000EBFE0123BB607B685B68303BFB60FB68EF
:102AF00030337A689A4289D1BB68002B03D0FFF744
:102B000055FA00E000BF1037BD4680BD50240020BC
:102B100080B483B000AF0346FB80FB8803F0100352
:102B20009BB2002B01D0204B38E0FB8803F004035C
:102B30009BB2002B01D01D4B30E0FB8803F020033B
:102B40009BB2002B01D01A4B28E0FB8803F008034E
:102B50009BB2002B09D0FB8803F040039BB2002BF3
:102B600001D0144B1AE0144B18E0FB8803F0020369
:102B70009BB2002B01D0114B10E0FB8803F40053F3
:102B80009BB2002B09D0FB8803F040039BB2002BC3
:102B900001D00B4B02E00B4B00E00B4B18460C37FF
:102BA000BD465DF8047B704778090108800901087B
:102BB00088090108900901089C090108A409010875
:102BC000AC090108C0090108CC09010880B586B02C
:102BD00000AF78601C4B1A687B68542101FB03F33B
:102BE0001344FB60FB68DB681B68B3F1CC3F1AD170
:102BF000FB68DB6804337B6102E07B6904337B6143
:102C0000FB681B687A699A4204D27B691B68B3F13E
:102C1000CA3FF2D0FB689A68FB68D9687B69CB1A17
:102C200013443B610BE009480BF080FCFB685B6AD6
:102C3000194607480BF07AFC4FF0FF333B613B69C4
:102C400018461837BD4680BD58240020D809010811
:102C5000E00901082DE9F0418AB006AF34480BF0D5
:102C600065FC34480BF062FC33480BF05FFC3148E4
:102C70000BF05CFC0023FB604FE0304B1A68FB68F4
:102C8000542101FB03F31344BB60BB689B8803F032
:102C90000103002B3DD1BB685D6ABB681E69BB6840
:102CA000DB889846BB689B881846FFF731FF786041
:102CB000BB689C68BB681B691846FFF787FF014625
:102CC000BB681B681846BB68DB68BA68926C0592E3
:102CD00004930390029101947B680093434632462B
:102CE000294617480BF022FCBB689B69002B07D0D4
:102CF000BB689B69DB88194612480BF017FC04E09F
:102D00004FF6FF710F480BF011FC0F480BF0AAFCB7
:102D100000E000BFFB680133FB600C4B1B68FA68E6
:102D20009A42AAD3002318461037BD46BDE8F08169
:102D3000040A01087C0A0108800A010858240020BE
:102D4000F40A01082C0B0108340B01085C24002054
:102D500080B584B000AF414B1B680133542202FBA5
:102D600003F37B603E4B1B687968184601F0ABFCAF
:102D700003463C4A13603B4B1B68002B01D13A4B86
:102D800067E0384B1B687A68002118460AF05BFF41
:102D90003648FFF7C3FC3648FFF7C0FC3548FFF75D
:102DA000BDFC0023FB6020E02E4B1A68FB68542119
:102DB00001FB03F3134401229A802A4B1A68FB6833
:102DC000542101FB03F31344FA681A61254B1A6876
:102DD000FB68542101FB03F31344283319462448AC
:102DE000FFF7C5FCFB680133FB60FB680F2BDBD9E9
:102DF0000822002120480AF026FF00F02BFD4FF4A6
:102E000080737B60164B1B687968184601F05BFC89
:102E1000B860BB68002B01D1134B1AE07A6800211F
:102E2000B8680AF010FF154ABB681360134B002204
:102E30009A800023FB6008E0B868FFF76FFCFB682E
:102E40000133FB60BB680833BB60FB681F2BF3D901
:102E5000002318461037BD4680BD00BF5C2400200B
:102E60001C2400205824002000020003D02500204C
:102E700070240020482400206424002050240020D6
:102E800080B588B000AF3B1D1822002118460AF01B
:102E9000DAFE0C4B7B604FF400733B610A4B7B61A5
:102EA0001F233B813B1D1946084800F0DFF9F861FC
:102EB000FB69002B01D0FB6900E000231846203796
:102EC000BD4680BDE5270008380B010840240020DE
:102ED00080B400AF064B1B68002B01D1054B02E00C
:102EE000034B1B681B691846BD465DF8047B7047A1
:102EF000642400200702000280B500AF414B1B682C
:102F0000DB681B68B3F1CC3F0CD03F480BF00EFBE5
:102F10003C4B1B68596A3B4B1B681B691A463B4874
:102F20000BF004FB374B5B681B681A46354B5B683C
:102F3000DB689A420CD9334B5B681B681946314BEE
:102F40005B68DA682F4B5B689B68134499421AD917
:102F50002D480BF0EBFA2B4B5B68596A294B5B68E9
:102F60001B691A462A480BF0E1FA27480BF0DEFAF3
:102F7000244B5B681B681946224B5B68DB681A466A
:102F800024480BF0D3FA1F4B5B681A69224B1B785D
:102F900091B2214A5B0013440A465A801E4B1B78AB
:102FA0005B0110331C4A1344981D164B5B685B6A27
:102FB000202219460AF039FE174B1B78164A5B018E
:102FC0001344353300221A70134B1B780133DAB2E5
:102FD000114B1A70104B1B780A2B09D10E4B002293
:102FE0001A700D4B5B7863F07F03DAB20A4B5A70AC
:102FF0000A4B1B68002B02D0084B1B68984700BF88
:1030000080BD00BF64240020D8090108440B0108DA
:103010006C0B0108900B010878240020600200204E
:1030200080B500AF4FF4AB72002107480AF00BFEE9
:10303000054B0A225A70054B054A1A60054B0022BF
:103040001A6000BF80BD00BF782400205C02002011
:10305000F92E00086002002080B584B000AF7860CF
:103060000B4B1A687B68542101FB03F31344FB608C
:10307000FB685B69FA68126A10469847FB681B692F
:10308000184600F069F900BF1037BD4680BD00BF8B
:103090005824002080B588B000AF786039600023E4
:1030A0007B614FF0FF33BB617B68002B01D1634B29
:1030B000BFE03B68002B01D1614BBAE03B681B6964
:1030C000002B01D15F4BB4E03B681B68002B01D1A2
:1030D0005D4BAEE03B689B881F2B01D95B4BA8E0A2
:1030E0003B689B881F2B06D13B681B68584A93425C
:1030F00001D0564B9DE03B68DB68002B03D13B6859
:103100004FF43472DA603B68DB680821184602F03D
:1031100024FC02463B68DA603B68DB68B3F5987FC5
:1031200001D24C4B85E0FEF73BFDF86119E04A4BBC
:103130005B68283B3B61484B5B681846FFF726FB02
:103140003B69283319464548FFF7F8FA444B1A689B
:103150003B69DB681946104601F0F8FA3B6900222A
:10316000DA603D48FFF72CFB0346002BDFD03B48DD
:10317000FFF726FB0346002B02D03A4BBB6154E01D
:10318000364B5B68283B3B61344B5B681846FFF766
:10319000FDFAF869FEF70AFD3B691B697B61386837
:1031A000FEF79EFFF860FB68002B0BD1FEF7F8FCE2
:1031B000F8613B69283319462848FFF7BFFA2A4BC4
:1031C000BB6132E03B689A683B691A62FA683B6906
:1031D000DA603B68DA683B699A603B6900229A6171
:1031E0003B690022DA613B6902229A803B689A8837
:1031F0003B69DA803B681A683B695A613B694FF06A
:10320000FF32DA633B6900229A643B681A693B69C2
:103210005A623B6900221A6539683869FEF7F2FE86
:103220007B687A691A60002303E0F869FEF7BEFC48
:10323000BB6918462037BD4680BD00BF07020002AB
:103240000102000205020002040200020302000261
:10325000E527000806020002482400207024002010
:103260001C2400201102000200020003B0B58CB043
:1032700000AF786039600023FB623B68002B01D10E
:10328000304B5BE03B6807F10C041D460FCD0FC4CB
:1032900095E8030084E8030007F10C0319467868F9
:1032A000FFF7F8FEF862FB6A002B01D0FB6A45E0ED
:1032B000254B1A687B681B68542101FB03F31344F8
:1032C000BB62FEF76DFC7862BB6A9B8823F0020349
:1032D0009AB2BB6A9A80BB6A9B8843F004039AB295
:1032E000BB6A9A80BB6A03F12802BB6ADB88194675
:1032F000104600F0E1FA00F033FB0346283B134A86
:103300005360134B1B68002B14D0124B1B88002BEF
:1033100010D10E4B1A680D4B5B689A420AD00D4BC8
:103320001B88002B06D1786AFEF740FCFEF738FEBA
:10333000002303E0786AFEF739FC00231846303793
:10334000BD46B0BD010200025824002064240020C4
:103350006C2400206024002080B586B000AF786027
:103360004FF0FF337B616F4B1B687A689A4201D143
:103370006D4BD3E06D4B1B687A689A4201D16C4B60
:10338000CCE06C4B1B687A689A4201D36A4BC5E06B
:10339000FEF706FC3861FFF79BFD02467B6893420F
:1033A00002D1664B00221A80654B1A687B68542153
:1033B00001FB03F31344FB60FB689B887B817B89E3
:1033C00003F001039BB2002B07D05E4B7B6100BF73
:1033D0003869FEF7EBFB7B69A0E07B8903F0100303
:1033E0009BB2002B06D0554B1B88002B02D0534BB1
:1033F00000221A807B8903F004039BB2002B0CD0BF
:10340000FB682833184600F081FAFB689B8823F09C
:1034100004039AB2FB689A8010E07B8903F00803EA
:103420009BB2002B05D17B8903F400539BB2002B88
:1034300004D0FB6828331846FFF7A8F97B8903F00E
:1034400060039BB2002B02D0F868FFF789FAFB6893
:103450009B8823F002039AB2FB689A80FB689B88E2
:1034600043F001039AB2FB689A80FB684FF0FF3289
:10347000DA63FB6800229A6400F072FA0346283B84
:10348000314A5360FB689B8803F010039BB2002B0A
:103490002CD0FB68283319462C48FFF768F9284BD5
:1034A0001A68244B1B68542101FB03F31344264A7A
:1034B0001360254B1B687A681A61234B1B68FA68F6
:1034C00092889A80204B1B68FA68D268DA601E4B9B
:1034D0001B68FA68526A5A62FB6801229A8038694E
:1034E000FEF764FBFEF75CFD002317E0FB6801229A
:1034F0009A80FB68283319461548FFF71FF9154BCA
:103500001A68FB68DB681946104601F01FF9FB6872
:103510000022DA603869FEF749FB002318461837A5
:10352000BD4680BD40240020140200024424002037
:10353000210200025C240020070200026024002017
:10354000582400200A02000264240020482400209D
:10355000702400201C24002080B584B000AF786067
:10356000FEF770FC0346002B01D01D4B33E01D4BD2
:103570001B88002B01D01C4B2DE07B68002B03D156
:1035800000F0AEF8034626E0FEF70AFBF860174BA2
:103590001B682833184600F0B9F9144B1B689A8849
:1035A000124B1B6822F0040292B29A800F4B1B68E8
:1035B00079681846FFF74CF90C4B1B689A880B4B3F
:1035C0001B6842F0200292B29A80F868FEF7EEFA89
:1035D000FEF7ECFC002318461037BD4680BD00BF47
:1035E0000D020003602400200E020002642400206B
:1035F00080B586B000AFF860B9607A60184B1B6880
:103600007B617B692833184600F080F97B699B88D1
:1036100023F004039AB27B699A807B6928333B616B
:103620007B699A88BB689BB213439AB27B699A8084
:103630003969F868FFF79BF87B68B3F1FF3F0AD060
:103640007B699B8843F040039AB27B699A807968D2
:103650007869FFF7FDF800BF1837BD4680BD00BF91
:103660006424002080B582B000AF786039607B6848
:1036700028331846FFF78AF87B689A883B689BB224
:10368000DB439BB213409AB27B689A807B689B882D
:1036900003F04003002B09D07868FFF761F97B68DD
:1036A0009B8823F040039AB27B689A807B689B8852
:1036B00003F00203002B0FD17B689B8843F00403C7
:1036C0009AB27B689A807B6803F128027B68DB886A
:1036D0001946104600F0F0F800BF0837BD4680BD1F
:1036E00080B582B000AF00237B60244B1B681A6951
:1036F000234B1B689A4201D3224B3AE01F4B1B68B5
:103700009B8803F00403002B01D1002331E0FEF776
:1037100047FA3860194B1B68DB88184600F040F9FF
:1037200078607B68012B20D9144B1B68283318461E
:10373000FFF72CF8114B1B689A88104B1B6842F05E
:10374000040292B29A800D4B1B6803F128020B4BC6
:103750001B68DB881946104600F0AEF83868FEF7A3
:1037600025FAFEF723FC002303E03868FEF71EFA73
:10377000054B18460837BD4680BD00BF64240020B5
:103780005C240020070200021002000280B483B013
:1037900000AF78607B687A685A607B687A681A60E4
:1037A00000BF0C37BD465DF8047B704780B483B022
:1037B00000AF786039607B685A683B685A603B6844
:1037C0007A681A607B685B683A681A607B683A6856
:1037D0005A6000BF0C37BD465DF8047B704780B56A
:1037E00082B000AF786039607B681B683968184622
:1037F000FFF7DCFF00BF0837BD4680BD80B483B053
:1038000000AF78607B685B687A6812681A607B68D2
:103810001B687A6852685A607B6800225A607B682D
:1038200000221A6000BF0C37BD465DF8047B70476C
:1038300080B483B000AF78607B685B687A689A4236
:103840000CBF01230023DBB218460C37BD465DF8E0
:10385000047B704780B582B000AF00237B600023FB
:103860003B604FF480733B60114B1B68396818460E
:1038700000F029FF03460F4A13600E4B1B68002B14
:1038800011D000237B600AE00A4B1A687B68DB00DA
:1038900013441846FFF77AFF7B6801337B607B682F
:1038A0001F2BF1D900E000BF0837BD4680BD00BF27
:1038B0001C240020D825002080B582B000AF78609D
:1038C0003960104B1A683B68DB0013441846FFF759
:1038D000AFFF0346002B08D04FF000423B68DA40B0
:1038E000094B1B681343084A1360064B1A683B6870
:1038F000DB00134479681846FFF771FF00BF0837F3
:10390000BD4680BDD82500206402002080B584B06B
:1039100000AF78607868FFF771FF7B68283BFB6039
:103920000D4B1A68FB68DB88DB0013441846FFF771
:103930007FFF0346002B0BD0FB68DB881A464FF055
:103940000043D340DA43054B1B681340034A13601E
:1039500000BF1037BD4680BDD8250020640200207E
:1039600080B483B000AF00237B600B4B1B68002B3F
:103970000BD0094B1B68B3FA83F37B60074B1A68C3
:103980007B68DB0013445B6800E0002318460C37BB
:10399000BD465DF8047B704764020020D8250020F6
:1039A00080B485B000AF78600023FB600023BB606B
:1039B0000E4B1A687B68DB0013445B68BB6005E054
:1039C000FB680133FB60BB685B68BB60074B1A6830
:1039D0007B68DB001344BA689A42F1D1FB68184651
:1039E0001437BD465DF8047B704700BFD825002022
:1039F00080B483B000AF78607B687A685A607B6877
:103A00007A681A6000BF0C37BD465DF8047B7047CA
:103A100080B483B000AF786039607B685A683B68D7
:103A20005A603B687A681A607B685B683A681A601B
:103A30007B683A685A6000BF0C37BD465DF8047B6E
:103A4000704780B582B000AF786039607B681B68D2
:103A500039681846FFF7DCFF00BF0837BD4680BD58
:103A600080B582B000AF1D4B1B684FF4DC71184667
:103A700000F029FE03461A4A1360194B1B68002BFD
:103A800001D1184B25E0164B1B684FF4DC72002166
:103A900018460AF0D8F81448FFF7AAFF0023FB8065
:103AA00013E00F4B1A68FB882C2101FB03F313442E
:103AB0003B603B68FA885A813B681C3319460A48C8
:103AC000FFF7BFFFFB880133FB80FB88092BE8D998
:103AD000002318460837BD4680BD00BF1C240020C7
:103AE000E425002001060002DC25002080B483B01C
:103AF00000AF78607B687A685A607B687A681A6081
:103B000000BF0C37BD465DF8047B704780B483B0BE
:103B100000AF786039607B685A683B685A603B68E0
:103B20007A681A607B685B683A681A607B683A68F2
:103B30005A6000BF0C37BD465DF8047B704780B506
:103B400082B000AF786039607B681B6839681846BE
:103B5000FFF7DCFF00BF0837BD4680BD80B483B0EF
:103B600000AF78607B685B687A6812681A607B686F
:103B70001B687A6852685A607B6800225A607B68CA
:103B800000221A6000BF0C37BD465DF8047B704709
:103B900080B483B000AF78607B685B687A689A42D3
:103BA0000CBF01230023DBB218460C37BD465DF87D
:103BB000047B704780B582B000AF1948FFF796FFCD
:103BC000184B1B684FF4A071184600F07CFD0346AB
:103BD000154A1360144B1B68002B01D1134B1BE0DB
:103BE0000023FB8014E0104B1A68FB881B01134470
:103BF0003B603B68FA88DA803B6800221A803B68A9
:103C0000083319460648FFF79AFFFB880133FB800B
:103C1000FB88132BE7D9002318460837BD4680BD23
:103C2000E82500201C240020F025002000070002C9
:103C300080B58AB002AF03463A60FB800B46BB807A
:103C40003B68002B01D1254B43E0FA88BB889A42A0
:103C500004D9234BFB61234BBB6131E0FDF7A0FF8F
:103C600078612148FFF794FF0346002B07D078695D
:103C7000FDF79CFF1D4BFB611A4BBB6120E01A4B0B
:103C80005B683B613869FFF769FF3B69083BFB6094
:103C9000FB68FA885A80FB6801221A80FB68BA88A0
:103CA0009A80FB6808331846FFF720FFFB68DB8823
:103CB0001A463B681A607869FDF778FF002308E030
:103CC000002300930023FA69B969094801F064FEF2
:103CD000FB6918462037BD4680BD00BF02070002C1
:103CE00008070002F8C3B2A1E8250020030700027C
:103CF000C40B010880B58AB002AF78607B68132BD3
:103D000004D9284BFB61284BBB613EE0274B1A6866
:103D10007B681B0113447B61FDF742FF38617B69BF
:103D20001B88002B19D13869FDF740FF1D4BFB6143
:103D30001D4BBB6129E07B69DB68283BFB60FB68AE
:103D400000229A610821F868FFF78CFCFB689B88C9
:103D500043F040039AB2FB689A807B6908331846A7
:103D6000FFF716FF0346002BE5D07B6908331946A1
:103D70000F48FFF7CBFE7B6900221A803869FDF7F8
:103D800015FFFEF713F9002308E00023009300233A
:103D9000FA69B969074801F0FFFDFB691846203749
:103DA000BD4680BD01070002F8C3B2A1F025002086
:103DB000E8250020C40B010880B588B002AF786008
:103DC00039607B68132B09D9002300930023444AF0
:103DD0004449454801F0E0FD414B7CE0434B1A6803
:103DE0007B681B011344FB60FDF7DAFE7861FB681A
:103DF0001B88002B0CD17869FDF7D8FE00230093B7
:103E00000023374A3749384801F0C6FD344B62E099
:103E1000FB685B88002B0AD0FB685B88013B9AB289
:103E2000FB685A807869FDF7C1FE002353E03B68C8
:103E3000002B02D12E4B3B6141E0FEF703F8034615
:103E4000002B08D02B4B3B612B480AF06FFB2B4813
:103E50000AF008FC33E02A4B1B88002B08D0294BC2
:103E60003B6125480AF062FB27480AF0FBFB26E08D
:103E7000264B1B68BB60BB68FA689A61FB68083315
:103E80003A6808211846FFF7B3FB7869FDF78EFE04
:103E9000FEF78CF8BB689B8803F04003002B0CD026
:103EA000FDF77EFE7861BB689B8823F040039AB2E1
:103EB000BB689A80164B3B6101E000230BE07869F8
:103EC000FDF774FE0023009300233A690549064874
:103ED00001F062FD3B6918461837BD4680BD00BF42
:103EE00001070002F8C3B2A1C40B0108F0250020AD
:103EF0000407000205070002D80B0108E00B0108C7
:103F00006024002006070002000C01086424002041
:103F10000707000280B588B002AF78602C4B1A68A2
:103F20007B681B0113447B617B68132B01D9294BF0
:103F300049E0FDF735FE38617B691B88002B0CD109
:103F40003869FDF733FE002300930023214A2249FC
:103F5000224801F021FD1F4B35E07B699A887B697F
:103F60005B889A420CD13869FDF720FE002300934C
:103F700000231B4A1849194801F00EFD184B22E096
:103F80007B6908331846FFF703FE0346002B10D168
:103F90007B69DB68283BFB60FB6800229A61082193
:103FA000F868FFF75FFB3869FDF700FEFDF7FEFFDD
:103FB00008E07B695B8801339AB27B695A80386973
:103FC000FDF7F4FD002318461837BD4680BD00BF3D
:103FD000F025002001070002F8C3B2A1C40B0108BC
:103FE0000807000280B483B000AF78607B687A680D
:103FF0005A607B687A681A6000BF0C37BD465DF86E
:10400000047B704780B483B000AF786039607B6810
:104010005A683B685A603B687A681A607B685B68DC
:104020003A681A607B683A685A6000BF0C37BD4630
:104030005DF8047B704780B582B000AF786039606E
:104040007B681B6839681846FFF7DCFF00BF08373C
:10405000BD4680BD80B483B000AF78607B685B688C
:104060007A6812681A607B681B687A6852685A60BE
:104070007B6800225A607B6800221A6000BF0C3700
:10408000BD465DF8047B704780B483B000AF7860B4
:104090007B685B687A689A420CBF01230023DBB21D
:1040A00018460C37BD465DF8047B704780B582B07A
:1040B00000AF174B1B68002B01D0002324E0144BEA
:1040C000144A1A601448FFF78DFF00237B6017E045
:1040D0000F4B19687A6813465B001344DB000B44EE
:1040E0003B603B687A685A603B6800221A703B6804
:1040F000083319460848FFF79EFF7B6801337B6051
:104100007B68132BE4D9002318460837BD4680BDD1
:10411000680200206C020020F425002080B58AB0DF
:1041200002AF7860254B1B68002B01D1FFF7BEFF63
:104130007B68002B01D1224B3CE0FDF731FDF8619B
:104140002048FFF7A1FF0346002B11D0F869FDF7C7
:104150002DFD1D4B3B611D4BFB6000BF00230093F9
:1041600000233A69F9681A4801F016FC3B6921E01E
:10417000144B5B68BB61B869FFF76CFFBB69083B18
:104180007B617B6900225A807B6901221A707B69FE
:1041900000229A827B6900221A617B6908331846E3
:1041A000FFF720FF7B695A687B681A60F869FDF7A2
:1041B000FDFC002318462037BD4680BD6802002064
:1041C000021D0002F4250020031D0002F8C3B2A165
:1041D000240C010880B588B002AF78607B68132B8F
:1041E00004D9264B7B61264B3B6139E0254B19688E
:1041F0007A6813465B001344DB000B44FB60FDF759
:10420000CFFCB860FB681B78002B07D1B868FDF7BE
:10421000CDFC1A4B7B611A4B3B6121E0FB680833F4
:104220001846FFF731FF0346002B03D0FB685B887D
:10423000002B07D0B868FDF7B9FC134B7B61104B1E
:104240003B610DE0FB68083319461048FFF7DAFEC2
:10425000FB6800221A70B868FDF7A8FC002308E08C
:104260000023009300237A693969094801F094FB1F
:104270007B6918461837BD4680BD00BF011D00028E
:10428000F8C3B2A168020020091D0002F425002035
:10429000240C010880B588B002AF786039607B6873
:1042A000132B09D9002300930023594A59495A482E
:1042B00001F072FB564BA7E0584B19687A68134619
:1042C0005B001344DB000B443B61FDF769FCF860C5
:1042D0003B691B78002B0CD1F868FDF767FC0023C5
:1042E000009300234A4A4B494B4801F055FB484B89
:1042F0008AE0FDF7A7FD0346002B04D0F868FDF720
:1043000055FC474B80E0474B1B68BB603B695B88B3
:10431000002B11D13B695B8801339AB23B695A800B
:104320003B69BA681A61BB68DA883B699A82F868A7
:10433000FDF73CFC002367E03B691B69BA689A42C1
:104340000AD13B695B8801339AB23B695A80F868AD
:10435000FDF72CFC002357E03B68002B04D1F868E4
:10436000FDF724FC304B4FE0304B1B88002B0CD06A
:104370002F4B7B612F480AF0D9F82F480AF072F9C9
:1043800000BFF868FDF712FC35E0BB683A69DA61F6
:104390003B691B69DA88BB68DB889A4207D93B69AD
:1043A0001A69BB68DB8819461046FEF71EFA3B699E
:1043B00008333A6808211846FFF71AF9F868FDF73C
:1043C000F5FBFDF7F3FDBB689B8803F04003002B72
:1043D0000FD0FDF7E5FBF860BB689B8823F0400336
:1043E0009AB2BB689A80F868FDF7E0FB134B7B61DB
:1043F00001E0002308E00023009300237A690549C7
:10440000054801F0C9FA7B6918461837BD4680BDDA
:10441000011D0002F8C3B2A1240C010868020020AB
:10442000051D000264240020041D000260240020F9
:10443000061D0002380C0108400C0108071D00028F
:1044400080B588B002AF7860404B19687A6813462F
:104450005B001344DB000B447B61FDF7A1FB38617B
:104460007B68132B03D87B691B78002B0CD1386930
:10447000FDF79CFB002300930023354A354936485D
:1044800001F08AFA324B5DE0344B1B68FB607B69BC
:104490005B88002B04D07B691B69FA689A420CD0B8
:1044A0003869FDF783FB002300930023284A29493C
:1044B000294801F071FA264B44E07B695B88013B97
:1044C0009AB27B695A807B695B88002B04D038697B
:1044D000FDF76CFB002335E07B691B69DA887B699B
:1044E0009B8A9A4207D07B691A697B699B8A194625
:1044F0001046FEF77AF97B6908331846FFF7C4FDCA
:104500000346002B1AD17B69DB68283BBB607B69C3
:1045100001225A807B69BA681A61BB68DA887B69B4
:104520009A82BB680022DA610821B868FFF79AF81E
:104530003869FDF73BFBFDF739FD02E03869FDF70F
:1045400035FB002318461837BD4680BD68020020A1
:10455000011D0002F8C3B2A1240C0108642400204C
:1045600080B584B000AF786039607B6803F00303E6
:104570003A68D31A3B603B6823F003033B607B68D7
:1045800023F003037B607B68002B03D03B68B3F50B
:104590000C7F01D8012314E07B68FB60F86800F011
:1045A000ACFCFB6803F50C713B68A3F50C731A4671
:1045B000F86800F0C7FC0346002B01D0012300E09F
:1045C000002318461037BD4680BD000080B582B07C
:1045D00000AF1A4B7B607B681B6818467B685A6883
:1045E0007B681B68D31A1946FFF7BAFF38603B682F
:1045F000002B01D03B681DE07B681B681A46104BFE
:104600001A607B6808337B600FE00D4B18687B688D
:104610001B6819467B685A687B681B68D31A1A4660
:1046200000F090FC7B6808337B607B685B68002B44
:10463000EBD1002318460837BD4680BD9C680108B1
:104640001C24002080B584B000AFF860B9607A60A7
:10465000BA687968F86800F072FD034618461037AA
:10466000BD4680BD80B582B000AF786039603968E2
:10467000786800F0BAFD034618460837BD4680BD8D
:1046800080B582B000AF786039603968786800F032
:10469000BBFD0346002B01D0002300E00123184698
:1046A0000837BD4680BD80B584B000AFF860B96002
:1046B0007A607A68B968F86800F014FE0346184614
:1046C0001037BD4680BD80B584B000AF78603960DA
:1046D0000023FB603B68002B01D1FB6812E07B6884
:1046E000002B01D1FB680DE03968786801F069F8AA
:1046F000F860FB68002B04D139687868FFF7B2FFD7
:10470000F860FB6818461037BD4680BD80B584B0A0
:1047100000AFF860B9607A607A68B968F868FFF746
:1047200091FF034618461037BD4680BD80B584B062
:1047300000AFF860B9607A607A68B968F868FFF726
:10474000B2FF034618461037BD4680BD80B584B021
:1047500000AF786039600023FB607B68002B02D0DB
:104760003B68002B01D1012312E03968786801F021
:104770009FF8F860FB68012B04D039687868FFF770
:104780007FFFF860FB68012B14BF01230023DBB21D
:1047900018461037BD4680BD80B483B000AF786046
:1047A0007B6803F5F87318460C37BD465DF8047B4B
:1047B0007047000080B584B000AF786039607B68D6
:1047C000002B02D1094B1B6800E07B68FB603B6853
:1047D000002B14BF01230023DBB21946F86800F058
:1047E0004FFE00BF1037BD4680BD00BF1C24002017
:1047F00080B483B000AF78607B687A685A607B6869
:104800005A687B681A6000BF0C37BD465DF8047BB0
:10481000704780B485B000AFF860B9607A607B689B
:10482000FA681A607B68BA685A60FB687A685A60EE
:10483000BB687A681A6000BF1437BD465DF8047B18
:10484000704780B582B000AF786039607B681B68C4
:104850003A6879681846FFF7DCFF00BF0837BD46A5
:1048600080BD80B483B000AF78607B681B687A68D5
:1048700052685A607B685B687A6812681A6000BF89
:104880000C37BD465DF8047B704780B483B000AF41
:1048900078607B681B687A689A420CBF012300230A
:1048A000DBB218460C37BD465DF8047B704780B418
:1048B00083B000AF78607B685B6803F00103002B76
:1048C0000CBF01230023DBB218460C37BD465DF850
:1048D000047B704780B483B000AF78607B685B680E
:1048E00043F001027B685A6000BF0C37BD465DF89B
:1048F000047B704780B483B000AF78607B685B68EE
:1049000023F001027B685A6000BF0C37BD465DF89A
:10491000047B704780B483B000AF78607B685B68CD
:1049200023F001037A68134418460C37BD465DF83E
:10493000047B704780B483B000AF78607B681B68ED
:1049400018460C37BD465DF8047B704780B483B0D1
:1049500000AF78607B68083318460C37BD465DF8B9
:10496000047B704780B485B000AF78607B6853F8F3
:10497000043CFB60FB6803F00103002B02D07B6862
:10498000083B00E0FB6818461437BD465DF8047B21
:10499000704780B483B000AF786039607B68043BB7
:1049A0003A681A6000BF0C37BD465DF8047B70475B
:1049B00080B483B000AF7860002318460C37BD4642
:1049C0005DF8047B704780B483B000AF78607B688B
:1049D000B3FA83F3C3F11F0318460C37BD465DF8E5
:1049E000047B704780B483B000AF786039603B6867
:1049F000023B7A6822FA03F3043B18460C37BD46A3
:104A00005DF8047B704780B584B000AF7860396092
:104A10003B685B681846FFF7D6FFF8603B685B6849
:104A2000F9681846FFF7DEFFB860FB681C2B02DD53
:104A30004FF0FF3349E07B681B680121FA6801FAF7
:104A400002F21A437B681A60FB68043B7A681344DD
:104A50001B795AB20121BB6801FA03F35BB213431D
:104A60005AB2FB68043BD1B27A6813440A461A7101
:104A7000FB68043BFB607B68FA689100BA680A44F3
:104A8000083253F82230002B0ED13B680833184609
:104A9000FFF7AEFE7B68FA689100BA680A440832F4
:104AA000396843F822100FE07B68FA689100BA6811
:104AB0000A44083253F8223003F108023B680833F5
:104AC00019461046FFF7BDFE002318461037BD46B5
:104AD00080BD80B584B000AF786039603B685B68AA
:104AE0001846FFF770FFF8603B685B68F968184686
:104AF000FFF778FFB860FB68043BFB603B68083356
:104B00001846FFF7C2FE0346002B1CD17B68FA68EB
:104B10009100BA680A44083253F822303A689A423F
:104B20000BD13B68DB68A3F108017B68FA68900051
:104B3000BA680244083243F822103B68083318462A
:104B4000FFF78FFE30E07B68FA689100BA680A448C
:104B50000832002143F822107A68FB6813440433BA
:104B60001B785AB20121BB6801FA03F35BB2DB4345
:104B70005BB213405BB2D9B27A68FB68134404336A
:104B80000A461A707A68FB68134404331B78002BBA
:104B90000AD17B681B68FA680432012101FA02F22B
:104BA000D2431A407B681A601037BD4680BD80B57D
:104BB00086B000AF786039603868FFF704FF78612D
:104BC0007B69023B012202FA03F31A463B68134455
:104BD000013B3B603868FFF7F6FE78617969386819
:104BE000FFF700FFF8607B691D2B01DD002341E02A
:104BF0007B69043B7A6813441B7919464FF0FF32F6
:104C0000FB6802FA03F30B403B613B69002B1ED1AA
:104C10007B681A687B6901334FF0FF3101FA03F3B7
:104C20001340BB60BB68002B01D1002322E0BB68AE
:104C3000DA43BB68013B1340B3FA83F3C3F12003AB
:104C40007B617B69043B7A6813441B793B613B6958
:104C5000DA433B69013B1340B3FA83F3C3F120030A
:104C6000FB607B691A1F7B689100FA680A4408326E
:104C700053F8223018461837BD4680BD80B489B03D
:104C800000AF78607B681B68002B01D100234AE0ED
:104C90007B681B68B3FA83F3C3F11B037B617A68FB
:104CA0007B69134404331B78B3FA83F3C3F11F0306
:104CB0003B617B69182B01DD002334E03B69032B4A
:104CC00001DD00232FE07B687A6991003A690A448C
:104CD000083253F822305B68BB617B687A699100C7
:104CE0003A690A44083253F82230DB68FB610DE070
:104CF000FB69083BFB60FB685B68BA699A4202D2B9
:104D0000FB685B68BB61FB695B68FB617B687A6918
:104D100091003A690A44083253F822300833FA699C
:104D20009A42E5D1BB6918462437BD465DF8047B3D
:104D3000704780B483B000AF786039607B681B68CF
:104D40005A1C7B681A607B685A683B685B6813442E
:104D5000A3F108027B685A6000BF0C37BD465DF8BE
:104D6000047B704780B483B000AF786039607B68A3
:104D70001B685A1E7B681A607B685A683B685B68D0
:104D8000D31A03F108027B685A6000BF0C37BD4696
:104D90005DF8047B70472DE9B00383B000AF786005
:104DA00039607B689B685A1C7B689A607B68DA680C
:104DB0003B685B681A447B68DA607B68D3E906234A
:104DC00012F1010843F100097B68C3E906897B6899
:104DD000D3E908013B685B681A464FF0000384186A
:104DE00041EB03057B68C3E908457B68DA687B68AB
:104DF0001B699A4203D97B68DA687B681A6100BF35
:104E00000C37BD46BDE8B00370472DE9B00383B051
:104E100000AF786039607B689B685A1E7B689A6037
:104E20007B68DA683B685B68D21A7B68DA607B680B
:104E3000D3E90A2312F1010843F100097B68C3E9B1
:104E40000A897B68D3E90C013B685B681A464FF01E
:104E50000003841841EB03057B68C3E90C4500BFE0
:104E60000C37BD46BDE8B003704780B582B000AFD7
:104E7000786039607B6839681846FFF7C4FD0346DF
:104E8000002B02D04FF0FF3307E07B6803F5DC73A3
:104E900039681846FFF74DFF002318460837BD460E
:104EA00080BD80B582B000AF786039607B683968BA
:104EB0001846FFF70EFE7B6803F5DC733968184669
:104EC000FFF750FF00BF0837BD4680BD80B584B0F6
:104ED00000AF786039607B6839681846FFF767FE75
:104EE000F860FB68002B03D0F9687868FFF7D9FFFA
:104EF000FB6818461037BD4680BD80B584B000AF52
:104F000078607B68002B02D14FF0FF3316E04FF43E
:104F10000C720021786808F096FE7B6803F5DA735E
:104F20001846FFF7FBF8F860FB68002B01D0FB6820
:104F300004E07B681846FFF73BFD00231846103756
:104F4000BD4680BD80B588B000AFF860B9607A60BA
:104F5000FB68002B02D0BB68002B02D14FF0FF335F
:104F60006EE0BB6803F003037A68D31A7B607B684A
:104F700023F003037B60BB6823F00303BB607B6803
:104F8000002B02DA4FF0FF335AE07B68272B02D860
:104F90004FF0FF3354E0FB68D3F8B4314FF0FF31EA
:104FA0001846FFF777F90346FB61FB69002B01D038
:104FB000FB6945E0BB68BB61BB697A685A60FB6806
:104FC000D3F8B021BB691A60FB68BA69C3F8B02195
:104FD000BB6908337B617B6900221A607B69082208
:104FE0005A607869FFF776FC7869FFF793FC78617F
:104FF000BB6903F108027B691A607B68A3F11802A0
:105000007B695A607969F868FFF72FFF0346002B28
:1050100002D04FF0FF3313E07869FFF77BFC386173
:105020003B697A691A603B6908225A603869FFF760
:1050300051FCFB68D3F8B4311846FFF701FA00239E
:1050400018462037BD4680BD80B58AB000AFF860F5
:10505000B9607A603B60B868FFF778FC38623A6AFA
:105060007B6813445A1E7B685B421340FB61BB683C
:105070007B62FA693B6A9A4227D0FA69BB68D31A05
:10508000182B04D8B968F869FFF783FC1DE0FB69A9
:10509000083B7B627B6ABA681A60BB685B68796AA6
:1050A000BA688A1A9A1A7B6A5A60786AFFF732FCE1
:1050B00002467B6A13607A6ABB68D31A1A46BB68D9
:1050C0005A60B968F868FFF7D0FE7B6A5B68F969D7
:1050D0007A6A8A1A9B1ABB61BA693B68D31A0F2B8A
:1050E0001ED97B6A5A683968BB69CB1A1A447B6A35
:1050F0005A60FA693B681344BB60BB687A6A1A60FD
:10510000BA693B68D21ABB685A60B868FFF702FCFC
:1051100078617B69BA681A60B968F868FFF7A5FE1C
:10512000FB6803F5DC73796A1846FFF734FE786A8A
:10513000FFF7D0FBFB6918462837BD4680BD80B518
:1051400086B000AFF860B9607A6000237B61FB68CD
:10515000002B01D1002344E0BB685A1EBB681340FA
:10516000002B01D000233CE07B68002B01D07B6842
:1051700000E001237B60BB68042B38BF0423BB60C5
:105180007B68072B01D808237B607B68033323F0FF
:1051900003037B60FB68D3F8B4314FF0FF3118464E
:1051A000FFF778F80346002B01D0002319E07A6856
:1051B000BB68134404331946F868FFF787FE38616B
:1051C0003B69002B06D07B68BA683969F868FFF73D
:1051D0003BFF7861FB68D3F8B4311846FFF730F92C
:1051E0007B6918461837BD4680BD80B582B000AFD8
:1051F000786039603A6804217868FFF7A0FF0346B9
:1052000018460837BD4680BD80B586B000AF7860CF
:1052100039607B68002B02D14FF0FF335EE03B68C2
:10522000002B01D1002359E03868FFF79BFB786120
:105230007B68D3F8B4314FF0FF311846FFF72AF8F6
:105240000346002B02D04FF0FF3347E07869FFF7A9
:1052500051FB7B6803F5DC7379691846FFF7D5FDD0
:105260007869FFF767FBF8607869FFF753FB3861EF
:10527000F868FFF71CFB0346002B0CD0F968786830
:10528000FFF70FFEFB685A687B695B681A44FB688E
:105290005A60FB687B613869FFF709FB0346002B06
:1052A0000ED039697868FFF7FCFD7B695A683B6965
:1052B0005B681A447B695A607869FFF72BFB386199
:1052C0003B697A691A6079697868FFF7CEFD7B6877
:1052D000D3F8B4311846FFF7B3F80023184618374F
:1052E000BD4680BD80B58AB000AFF860B9607A6015
:1052F000BB68002B05D17968F868FFF776FF034695
:1053000080E07B68002B05D1B968F868FFF77CFF67
:10531000002377E07B68072B02D808237B6004E03A
:105320007B68073323F007037B60B868FFF71AFB3D
:105330003862386AFFF7EEFA78627A6ABB68D31A85
:10534000FB61FA697B689A4212D27968F868FFF7C4
:105350004CFF38613B69002B08D0FA69B96838699D
:1053600008F063FCB968F868FFF74EFF3B6949E055
:10537000FA697B68D31ABB61BB690F2B01D8BB6884
:1053800040E0BB695B427A6A13447B617B693A6A9D
:105390001A60FB68D3F8B4314FF0FF311846FEF7BE
:1053A00079FF0346002B01D0BB682BE03B6A5A68AB
:1053B000BB69D21A3B6A5A60786AFFF778FA0346EB
:1053C000002B0ED07B6A5A68BB691A447B695A600D
:1053D000796AF868FFF765FD7869FFF79BFA7862EC
:1053E00002E07B69BA695A607B6A7A691A607969F6
:1053F000F868FFF73AFDFB68D3F8B4311846FFF7B9
:105400001FF8BB6818462837BD4680BD80B584B0FC
:1054100000AF78607B680833FB60144809F086F8B9
:10542000134809F083F8FB685B6823F00102FB680E
:105430005B6803F00103002B01D10E4B00E00E4B23
:10544000F9680E4809F072F8FB681B68002B03D05E
:10545000FB685B68092B04D0F868FFF75BFAF8601B
:10546000E1E700BF00BF1037BD4680BD640C0108F6
:10547000840C0108A80C0108B00C0108BC0C010840
:1054800080B586B002AF78600B46FB707B68D3F8BE
:10549000B031FB60FB78002B02D0394809F046F8A8
:1054A0007B68D3F8B4314FF0FF311846FEF7F2FEB7
:1054B0000346002B60D1FB78002B09D005E0F8688B
:1054C000FFF7A4FFFB681B68FB60FB68002BF6D1AD
:1054D0002C4809F02BF82C4809F028F82B4809F043
:1054E00025F82B4809F022F87B68D3F8BC117B68BB
:1054F000D3F8B8311A46274809F018F87B68D3F872
:10550000C4117B68D3F8C0311A46234809F00EF85D
:10551000224809F00BF87B68D3E97A017B68D3E96C
:105520007823CDE9002302460B461D4808F0FEFF14
:105530007B68D3E976017B68D3E97423CDE9002346
:1055400002460B46174808F0F1FF7B68D3F8C831D4
:105550001946154808F0EAFF7B681846FFF78EFBEE
:1055600003461946114808F0E1FF7B68D3F8B431CF
:105570001846FEF765FF00E000BF1037BD4680BD4E
:10558000CC0C0108E80C0108F80C0108200D0108FA
:10559000480D0108540D0108680D01087C0D010833
:1055A0008C0D0108A40D0108BC0D0108E80D0108CF
:1055B00080B483B000AF78607B681B6818460C37F6
:1055C000BD465DF8047B704780B483B000AF78605F
:1055D00039607B681B683A689A4201D3002311E066
:1055E0003B685B097A689B0013445A683B6803F088
:1055F0001F0322FA03F303F00103002B14BF01235E
:105600000023DBB218460C37BD465DF8047B7047BB
:1056100080B485B000AF786039607B681A1D3B6844
:105620005B099B001344FB607B681B683A689A42E5
:105630000CD2FB681A683B6803F01F03012101FAD2
:1056400003F3DB431A40FB681A6000E000BF143725
:10565000BD465DF8047B704780B489B000AF7860C8
:105660007B681B681F335B09FB607B680433BB618D
:1056700000233B610023FB6129E0BB691B68B3F198
:10568000FF3F06D1FB690133FB61BB690433BB619A
:105690001DE0BB691B68DB437B6105E07B695B0840
:1056A0007B613B6901333B617B69002BF6D1BB69B0
:1056B0001A683B69013B012101FA03F31A43BB69F4
:1056C0001A60FB695A013B691344013B05E0FA6922
:1056D000FB689A42D1D34FF0FF3318462437BD46BA
:1056E0005DF8047B704780B584B000AF78607B685C
:1056F0009B681846FFF7B0FFF860FB68002B01DAE3
:10570000002307E07B685A687B681B68F96801FB27
:1057100003F3134418461037BD4680BD80B586B0EC
:1057200000AF786039603B687B617B685B687A6951
:10573000D31A3B617B681B683A69B2FBF3F3FB60E9
:105740007B681A683B69B3FBF2F102FB01F29B1A1A
:10575000002B11D17B689B681846FFF729FF024692
:10576000FB68934208D27B689B68F9681846FFF78C
:105770002BFF0346002B01D1002306E07B689B68CA
:10578000F9681846FFF744FF012318461837BD464D
:1057900080BD80B483B000AF786039607B684DF61F
:1057A000DE621A803B68DAB27B689A707B680022FE
:1057B000DA707B68043318460C37BD465DF8047B0D
:1057C000704780B588B000AF786039600023FB6116
:1057D0007868FEF7E1FF786100233B610023BB613D
:1057E0003B68802B01D900235EE00023BB6157E0BA
:1057F0007A69BB691B0113441B683A689A424CD80A
:10580000FCF7CEF9F8607A69BB691B0113440833D1
:105810001A687969BB691B010B4404331B689A42FF
:1058200004D3F868FCF7C2F900233DE07A69BB694C
:105830001B0113440C331B68002B04D1F868FCF7E0
:10584000B5F9002330E0BB691B017A6913443B6161
:105850003B69DB681846FFF746FFF861FB69002BE0
:1058600016D07A69BB691B0113441B681946F86995
:10587000FFF78FFFF8617A69BB691B011344083396
:105880001B685A1C7969BB691B010B4408331A60F9
:10589000F868FCF78BF9FB6906E0BB690133BB6173
:1058A000BB69032BA4D9002318462037BD4680BD11
:1058B00080B588B000AF786039607868FEF76CFF1B
:1058C00078610023FB610023BB613B68043B3B61C3
:1058D0003B691B884DF6DE62934201D0002338E01D
:1058E0000023BB6131E03B699B7819467A69BB694B
:1058F0001B0113441B68994224D8FCF751F9F86046
:10590000BB691B017A691344BB60BB68DB683969FA
:105910001846FFF703FF0346012B0ED10123FB615D
:105920007A69BB691B01134408331B685A1E7969E5
:10593000BB691B010B4408331A60F868FCF736F9A1
:10594000FB6906E0BB690133BB61BB69032BCAD9A4
:10595000002318462037BD4680BD80B483B000AF19
:10596000786039607A683B681344013B7A689A42F0
:1059700007D27A683B6813445A1E3B685B42134067
:1059800003E03B685A427B68134018460C37BD461B
:105990005DF8047B7047000090B587B002AFF860F7
:1059A000B9607A603B600C4B1B68002B08D00A4B37
:1059B0001C683B6A00933B687A68B968F868A0473E
:1059C000BB68064A934201D0002300E0002318463A
:1059D0001437BD4690BD00BFFC250020F8C3B2A11E
:1059E000F0B58DB008AF78603960FBF70FFE034665
:1059F000012B18D80120FBF715FE0446FCF744F8EC
:105A000002460B46484B0593484B0493484B03937F
:105A1000484B0293484B01936C230093474B21461C
:105A2000474808F083FD0023FB6034E0454B1A68CB
:105A3000FB681B011344BB60FBF7E8FD0346012B29
:105A400026D80120FBF7EEFD0446FCF71DF80246C0
:105A50000B461646BB681B68BA68928902F00102C1
:105A6000394951F82220B968C9890846B968896856
:105A70000D46B96849680591049503900292019317
:105A8000702300932D4B32462146304808F04EFDDE
:105A9000FB680133FB602B4B5B68FA689A42C5DBFD
:105AA0000023FB6036E0274B9A68FB681B01134418
:105AB000BB60FBF7ABFD0346012B28D80120FBF7A9
:105AC000B1FD0446FBF7E0FF02460B461646BB68F5
:105AD0001B68BA68928902F001021B4951F8222022
:105AE000B968C9890846B96889680D46B9684968BE
:105AF00006910595049003920293FB680193762327
:105B000000930E4B32462146114808F00FFDFB680A
:105B10000133FB600B4BDB68FA689A42C3DB00235E
:105B200018461437BD46F0BD3C0E0108480E01086A
:105B3000500E0108540E01085C0E0108BC1B010840
:105B4000100E01084C04002018000020640E01080B
:105B5000940E010880B586B000AF78600023FB602A
:105B600000237B6100237B6100233B6114E01F4B1A
:105B70001A683B691B011344FB60FB681B681946EC
:105B80007868FAF78DFC0346002B02D1FB687B6135
:105B900007E03B6901333B61144B5B683A699A4209
:105BA000E5DB7B69002B1CD100233B6114E00F4B2C
:105BB0009A683B691B011344FB60FB681B6819462C
:105BC0007868FAF76DFC0346002B02D1FB687B6115
:105BD00007E03B6901333B61044BDB683A699A4259
:105BE000E5DB7B6918461837BD4680BD4C040020B4
:105BF00090B585B000AF7860364B0022A3F8402006
:105C00000023FB6024E0344B1A68FB681B0113443B
:105C1000BB60BB681C687868FAF74CFC03461A4600
:105C20007968204608F0D2FD0346002B0DD1294BA0
:105C3000B3F840305A1C91B2264AA2F840101946D7
:105C4000BB681B68234A42F82130FB680133FB60C4
:105C5000214B5B68FA689A4204DA1E4BB3F8403075
:105C60000F2BD0D90023FB6024E01B4B9A68FB6804
:105C70001B011344BB60BB681C687868FAF71AFC08
:105C800003461A467968204608F0A0FD0346002B1B
:105C90000DD1104BB3F840305A1C91B20D4AA2F806
:105CA00040101946BB681B680A4A42F82130FB685D
:105CB0000133FB60084BDB68FA689A4204DA054B53
:105CC000B3F840300F2BD0D9024B18461437BD46DD
:105CD00090BD00BF5C0400204C04002090B59DB036
:105CE00002AF78604FF0FF337B6610233B6507F10E
:105CF0000C0107F150037A681846FBF799FA3B6DDF
:105D0000002B06D100210020FFF76AFE00237B66EE
:105D10008DE0FB681846FFF71DFFB865BB6D002BD3
:105D200019D1FBF773FC0346012B10D80120FBF7B8
:105D300079FC0446FBF7A8FE02460B46FB6801937C
:105D4000D52300933C4B21463C4808F0EFFB4FF035
:105D5000FF337B666BE0BB6D9B89002B09D1BB6D6C
:105D60009B687B653A6D07F10C017B6D1046984787
:105D70005DE03B6D032B1AD13B6931491846FAF7B8
:105D80008FFB0346002B12D17B69002200211846AD
:105D900008F0D2FD0346FB64BB6D9868BB6DDB89E0
:105DA0001A4607F14C03194607F03FFF3FE0BB6D71
:105DB0009B683B66FBF72AFC0346012B10D80120A9
:105DC000FBF730FC0446FBF75FFE02460B463B6EDA
:105DD0000193E5230093184B21461A4808F0A6FBCF
:105DE0000023FB651DE0FBF711FC0346012B15D8D2
:105DF0000120FBF717FC0446FBF746FE02460B4664
:105E000011463B6E5A1C3A661B780193E7230093B8
:105E1000094B0A4621460C4808F088FBFB6D01330C
:105E2000FB65BB6DDB891A46FB6D9342DBDB7B6E4A
:105E300018466C37BD4690BDCC1B0108C80E010842
:105E4000F80E0108FC0E0108240F010880B483B08D
:105E500000AF00237B6000233B600C4B7B600C4A4F
